:020000020000FC
:100000000C9446000C9402000C9404000C9406001E
:100010000C9408000C940A000C940C000C940E0034
:100020000C9410000C9412000C9414000C94160004
:100030000C9418000C941A000C941C000C944501AC
:100040000C9420000C9422000C9424000C942600A4
:100050000C9428000C942A000C942C000C942E0074
:100060000C9430000C9432000C9434000C94360044
:100070000C9438000C943A000C943C000C943E0014
:100080000C9440000C9442000C9444000FE70DBF08
:1000900001E00EBF0ED1BDD1ECD0F8D010E000E0F1
:1000A00097D1789400D00FEF0ABB04BB01BBE2EFFD
:1000B000F1E0A0E0B2E000E805900D920A95E1F7CA
:1000C000EEE9F1E048E005911591EF93FF934F932E
:1000D0007FD14F91FF91EF9108EC5AD04A9599F753
:1000E000EEEAF1E049E005911591EF93FF934F930C
:1000F0006FD14F91FF91EF9105911591C0E8D1E03B
:10010000EF93FF934F931F930F9395D10F911F91EF
:100110004F91FF91EF91C0E8D1E0A0E0B2E0A10FD4
:1001200010E0B11F29913D912317E9F40A95D1F709
:1001300003E22ED04A95B9F60FEF0BBB00E002BBED
:100140000FEF05BBE2EDF1E040E105911591EF9372
:10015000FF934F933DD14F91FF91EF9103E218D060
:100160004A9599F781F005E011E032D10FEF02BB1B
:1001700000E00BBB0FEF05BB02E30AD002E510E085
:1001800027D104E605D000E010E022D1FFCF08958A
:10019000C0E2DEE42197F1F70A95D1F70895050151
:1001A000B801E8030000D0073200A00F64009200FD
:1001B0000200DC000A062601016472010179B8011F
:1001C000025D0B0215446E0211211003403FE8034B
:1001D00080005C033E03940210035C033E03940220
:1001E00010035C033E03940210035C033E0394027D
:1001F0001003D2D42BB44DCA332D49778243322514
:10020000C870D2B44B9669AC532D2E95BD8086D460
:1002100031216C6A959669A59A534C77981582425C
:10022000D89C9A93656A95CA356CB0318A6B5960CF
:100230008A836A33D44BB42DCA951313090A453304
:10024000D8434D9AA56C539966B2F07A4D280C4864
:1002500060212B2DD49A6536C9D212FAC0738E60F4
:1002600010CC2D9A65935AA56AD4C26002630C5BC8
:100270003A040F931F9311270BE003BF0AEF01BF4E
:10028000126017BF1F910F91089518950F9301E405
:100290000FBD00E10EBD0F9108950F9300E002B96C
:1002A0000F9108950F930FEF0ABB04BB01BB0F9191
:1002B0000895BD9A08952F9321E00F931F93012F66
:1002C00010E032D01F911F9307E0112F2DD01F9106
:1002D0000F9121302F9159F42F932FE70F931F93F4
:1002E000022F48D0202F1F910F9102232F910895A4
:1002F0002F9321E00F931F93012F10E015D01F9132
:100300001F9307E011D01F910F9121302F9159F4C5
:100310002F9320E80F931F93022F25D0202F1F919A
:100320000F91022B2F91089501170CF420E00895EE
:1003300001171CF4012F0C94A00120170CF4022FBC
:100340000895103021F0000F1A950C94A101089522
:100350002F9320E0103029F0000F021F1A950C9403
:10036000AA012F910895103021F006951A950C944A
:10037000B3010895103031F01A950695D8F700684A
:100380000C94BA010895332422246F9368E1001F6E
:10039000111F221F221C331C2416350610F0241AAC
:1003A000350A6A95A1F7001F111F221F00951095AD
:1003B00020956F9108950F93CF93DF93C0E2DEE411
:1003C0002197F1F70A95D1F7DF91CF910F91089519
:1003D0000F931F932F934F935F93112331F40023B7
:1003E00021F400E10EBD0C940302512F402F27E0B1
:1003F00011EA00E2C8DF222311F01FEF0FEF1BBD4F
:100400000ABD02E10EBD5F914F912F911F910F9197
:1004100008950F93B89AC09AB99ABA9ABB9801E511
:100420000DB9C0980F9108950F930EB10078003860
:10043000E1F70F9108950F931F932F935F938F937D
:100440009F93CF93DF935527812F800F38F1813809
:1004500028F5CE01800F951F08F10023F9F0212F18
:1004600026957F93C09A73E07FB9DEDF70E0722B30
:10047000770F7FB9D9DF7F9177277FB9D5DF8FB12C
:100480007FB9D2DF9FB1C09810FB26F089931395F6
:100490000A9521F0999313950A95DFCFDF91CF91BB
:0E04A0009F918F915F912F911F910F91089561
:00000001FF
