:020000020000FC
:100000000C9446000C9402000C9404000C9406001E
:100010000C9408000C940A000C940C000C940E0034
:100020000C9410000C9412000C9414000C94160004
:100030000C9418000C941A000C941C000C945B0196
:100040000C9420000C9422000C9424000C942600A4
:100050000C9428000C942A000C942C000C942E0074
:100060000C9430000C9432000C9434000C94360044
:100070000C9438000C943A000C943C000C943E0014
:100080000C9440000C9442000C9444000FE70DBF08
:1000900001E00EBF28D135D12BD1A9D330D183D4E3
:1000A000FED01AD110E000E05DD4789400D00FEFBC
:1000B0000ABB04BB01BBEEE1F2E0A0E0B2E000E865
:1000C00005900D920A95E1F7EAEAF1E048E0059122
:1000D0001591EF93FF934F9345D44F91FF91EF917B
:1000E00008EC5CD04A9599F7EAEBF1E049E005911C
:1000F0001591EF93FF934F9335D44F91FF91EF916B
:1001000005911591C0E8D1E0EF93FF934F931F93B2
:100110000F935BD40F911F914F91FF91EF91C0E826
:10012000D1E0A0E0B2E0A10F10E0B11F29913D9114
:100130002317F1F40A95D1F703E230D04A95B9F6C6
:10014000EF93FF93EEE0F2E0E7D3FF91EF91EEED56
:10015000F1E040E105911591EF93FF934F9302D4A5
:100160004F91FF91EF9103E219D04A9599F789F0E9
:1001700005E011E0F7D3EF93FF93EEEFF1E0CCD37E
:10018000FF91EF9102E30AD002E510E0EBD304E621
:1001900005D000E010E0E6D3FFCF0895C0E2DEE432
:1001A0002197F1F70A95D1F708950501B801E80301
:1001B0000000D0073200A00F640092000200DC00B3
:1001C0000A062601016472010179B801025D0B0281
:1001D00015446E0211211003403FE80380005C03C8
:1001E0003E03940210035C033E03940210035C037D
:1001F0003E03940210035C033E0394021003FF00CD
:10020000FF00FF00FF00FF00FF00FF00FF0000FFF6
:1002100000FF00FF00FF00FF00FF00FF00FFD2D43F
:100220002BB44DCA332D497782433225C870D2B4DE
:100230004B9669AC532D2E95BD8086D431216C6AC6
:10024000959669A59A534C7798158242D89C9A93B3
:10025000656A95CA356CB0318A6B59608A836A3396
:10026000D44BB42DCA951313090A4533D8434D9A7C
:10027000A56C539966B2F07A4D280C4860212B2D5D
:10028000D49A6536C9D212FAC0738E6010CC2D9AFA
:1002900065935AA56AD4C26002630C5B3A040F935B
:1002A0001F9311270BE003BF0AEF01BF126017BFB6
:1002B0001F910F9108950F920FB60F92CF93DF9376
:1002C000EF93FF933CD0B8D2FF91EF91DF91CF91A4
:1002D0000F900FBE0F9018950F9301E40FBD00E132
:1002E0000EBD0F9108950F9300E002B90F9108958C
:1002F0000F930FEF0ABB04BB01BB0F910895BD9A8A
:1003000008950F931F932F9300E0009380020093B2
:100310008202009384020093850200938702009377
:10032000880214E1109381021093830223E020934A
:100330008602209389022F911F910F91089504D076
:100340001DD036D076D008950F931F9301B100725F
:10035000003271F000918102003069F0013019F42F
:1003600011E0109380020A95009381020C94BB0166
:1003700004E1009381021F910F9108950F931F9341
:1003800001B10470043071F000918302003069F013
:10039000013019F411E0109382020A950093830250
:1003A0000C94D50104E1009383021F910F910895ED
:1003B0000F931F932F933F934F9311B1107C06E03F
:1003C000003021F016950A950C94E00130918602D8
:1003D0001330A1F4313E41F421E02093840233E054
:1003E000309386020C941302323D41F421E02093B5
:1003F000850233E0309386020C941302432F4C7035
:1004000046954695411731F43695369530938602D8
:100410000C941302432F4370411729F0330F330F0D
:10042000310F309386024F913F912F911F910F9181
:1004300008950F931F932F933F934F9311B118710A
:1004400003E0003021F016950A950C9421023091BA
:1004500089021330A1F4313E41F421E02093870258
:1004600033E0309389020C945402323D41F421E090
:100470002093880233E0309389020C945402432F76
:100480004C7046954695411731F436953695309324
:1004900089020C945402432F4370411729F0330F03
:1004A000330F310F309389024F913F912F911F915C
:1004B0000F9108950F925F936F930FB6F894509138
:1004C000800260E0609380020FBE513019F41894EE
:1004D0000C946B0298946F915F910F9008950F9216
:1004E0005F936F930FB6F8945091820260E060932F
:1004F00082020FBE513019F418940C948002989423
:100500006F915F910F9008950F925F936F930FB665
:10051000F8945091840260E0609384020FBE5130E1
:1005200019F418940C94950298946F915F910F9020
:1005300008950F925F936F930FB6F89450918502D0
:1005400060E0609385020FBE513019F418940C944A
:10055000AA0298946F915F910F9008950F925F9304
:100560006F930FB6F8945091870260E06093870212
:100570000FBE513019F418940C94BF0298946F91E7
:100580005F910F9008950F925F936F930FB6F89459
:100590005091880260E0609388020FBE513019F4D8
:1005A00018940C94D40298946F915F910F900895D1
:1005B0000F9336F00881002329F00A950C94E1028C
:1005C00004E108830F9108952F9321E00F931F9367
:1005D000012F10E032D01F911F9307E0112F2DD073
:1005E0001F910F9121302F9159F42F932FE70F93E3
:1005F0001F93022F48D0202F1F910F9102232F917C
:1006000008952F9321E00F931F93012F10E015D031
:100610001F911F9307E011D01F910F9121302F914F
:1006200059F42F9320E80F931F93022F25D0202FEA
:100630001F910F91022B2F91089501170CF420E0C8
:10064000089501171CF4012F0C94290320170CF4B2
:10065000022F0895103021F0000F1A950C942A03F0
:1006600008952F9320E0103029F0000F021F1A95F3
:100670000C9433032F910895103021F006951A95AC
:100680000C943C030895103031F01A950695D8F774
:1006900000680C9443030895332422246F9368E187
:1006A000001F111F221F221C331C2416350610F0B8
:1006B000241A350A6A95A1F7001F111F221F009501
:1006C000109520956F9108950F93CF93DF93C0E21B
:1006D000DEE42197F1F70A95D1F7DF91CF910F91E1
:1006E00008955F936F937F938F9300939F0210936E
:1006F000A002022F10E023E0A4DF202F2F93032F6E
:1007000010E023E09EDF2F91302F522F5170509335
:10071000A102622F66956093A202732F717070938D
:10072000A302832F86958093A4028F917F916F916E
:100730005F9108950F9300E01F93CF93DF93CAE872
:10074000D2E0EF93FF93E2E9F2E010E00993019326
:1007500013951830DCF3FF91EF91DF91CF911F914A
:100760000F9108952F9321E00F931F93002F10E016
:1007700064DF102F08E00A9560DF0F9110E05DDF65
:10078000102F08E00A9559DF112F0F9121302F917A
:1007900069F53F934F935F9350E00F931F93022FA0
:1007A00010E023E04EDF1F91202F0F91322F317088
:1007B000422F4695CAE8D2E0C10FD51FE2E9F2E028
:1007C000E10FF51F102F0881313019F41ADF0C9456
:1007D000EA03FADE08830081413019F412DF0C9439
:1007E000F203F2DE00835F914F913F9108950F93E2
:1007F000A1DF00E000939A0200E800939B0200E072
:1008000000939C020AEF00939E0200E000939D0279
:1008100008E000939F0208E00093A00200E000932C
:10082000A10200E00093A20200E00093A30200E016
:100830000093A4020F9108950F931F9310919B02B0
:100840002F9320919C023F9330919A024F934091B5
:100850009D025F9350919E026F937F9370E0CF93C0
:10086000DF9300E00BBB02BB103061F0C2E9D2E0C5
:10087000413021F06091A2020C944C046091A402DA
:100880000C944C04CAE8D2E0413021F06091A102FE
:100890000C944C046091A302C30FD71F0091A002D7
:1008A0003017088159F41F9310919F02613021F491
:1008B000A8DE1F910C945E0487DE1F9105BB5A953C
:1008C00050939E02503039F401E0402740939D023E
:1008D0005AEF50939E023395383009F430E030934C
:1008E0009A021BBB22BB103031F4203821F410E8EF
:1008F00020E00C947D041695221F10939B022093F8
:100900009C02DF91CF917F916F915F914F913F91C9
:100910002F911F910F910895EF93FF930F9300274D
:100920001F9318E0110F2F93AF93BF93AAE8B2E083
:10093000CF93DF93C2E9D2E0011751F0259100FB7C
:100940001EF02D930C94A504299303950C949C04FC
:10095000DF91CF91BF91AF912F911F910F91FF9197
:10096000EF9108950F931F93112331F4002321F485
:1009700000E10EBD0C94D0045F934F93512F402F94
:100980002F9327E011EA00E287DE222311F01FEF08
:100990000FEF1BBD0ABD02E10EBD2F914F915F917C
:1009A0001F910F9108950F93B89AC09AB99ABA9A65
:1009B000BB9801E50DB9C0980F9108950F930EB142
:1009C00000780038E1F70F9108950F931F93CF93AC
:1009D000DF932F938F939F935F935527812F800FE2
:1009E00038F1813828F5CE01800F951F08F10023DA
:1009F000F9F0212F26957F93C09A73E07FB9DEDF4F
:100A000070E0722B770F7FB9D9DF7F9177277FB99D
:100A1000D5DF8FB17FB9D2DF9FB1C09810FB26F030
:100A2000899313950A9521F0999313950A95DFCF31
:100A30007F919F918F912F91DF91CF911F910F9176
:020A4000089517
:00000001FF
