:020000020000FC
:100000000C94B2000C9402000C9404000C940600B2
:100010000C9408000C940A000C940C000C940E0034
:100020000C9410000C9412000C9414000C94160004
:100030000C9418000C941A000C941C000C942F01C2
:100040000C9420000C9422000C9424000C942600A4
:100050000C9428000C942A000C942C000C942E0074
:100060000C9430000C9432000C9434000C94360044
:100070000C9438000C943A000C943C000C943E0014
:100080000C9440000C9442000C9444000F931F9376
:1000900011270BE003BF0AEF01BF126017BF1F91CA
:1000A0000F9108950F920F931F9310E00FB6F894DD
:1000B00000918002109380020FBE0A9500231F91C9
:1000C0000F910F900F920F931F9310E00FB6F894BB
:1000D00000918202109382020FBE0A9500231F91A5
:1000E0000F910F900F920F931F9310E00FB6F8949B
:1000F00000918402109384020FBE0A9500231F9181
:100100000F910F900F920F931F9310E00FB6F8947A
:1001100000918502109385020FBE0A9500231F915E
:100120000F910F900F920F931F9310E00FB6F8945A
:1001300000918702109387020FBE0A9500231F913A
:100140000F910F900F920F931F9310E00FB6F8943A
:1001500000918802109388020FBE0A9500231F9118
:100160000F910F900FE70DBF02E00EBF002702B9FD
:1001700058D08CDF789401D0F5CF44244F9292DF91
:100180004F9041F402E345D04F928CDF4F9011F431
:100190000EEE3FD04F9296DF4F9041F401E339D0FD
:1001A0004F9290DF4F9011F40EEE33D04F929ADFC2
:1001B0004F9041F40CE42DD04F9294DF4F9011F406
:1001C0000EEE27D04F929EDF4F9041F402E521D0F2
:1001D0004F9298DF4F9011F40EEE1BD04F92A2DF9A
:1001E0004F9041F405E515D04F929CDF4F9011F4EC
:1001F0000EEE0FD04F92A6DF4F9041F404E409D0E9
:100200004F92A0DF4F9011F40EEE03D00C94BE007D
:100210000895C0E0D1E010E0C40DD11F08834394DD
:1002200008950F931F932F9300E014E123E00093B0
:10023000800200938202009384020093850200935F
:100240008702009388021093810210938302209307
:100250008602209389022F911F910F9108950F9389
:1002600000275F936F937F93CF93DF936091810219
:100270005FEF71B1709570720F927F9372E0772388
:100280000FB6072601FA7F910F90F72FEE27E0F9BE
:10029000C1E8D2E090D050F9562351500F92552327
:1002A0000FB601FA0F90DF91CF917F916F915F911F
:1002B00000F9009380025F936F937F93CF93DF9356
:1002C000609183025FEF71B1709574700F927F93AC
:1002D00072E077230FB6072601FA7F910F90F72F70
:1002E000EE27E0F9C3E8D2E066D050F9562351502A
:1002F0000F9255230FB601FA0F90DF91CF917F91A6
:100300006F915F9100F9009382020F931F932F93D7
:100310000091860211B117FB11F916FB10F9137049
:1003200021EE55D0009386022F911F910F9100F975
:10033000009384020F931F932F930091860211B1B3
:1003400017FB11F916FB10F9137022ED40D0009342
:1003500086022F911F910F9100F9009385020F9350
:100360001F932F930091890211B114FB11F913FB14
:1003700010F9137021EE2BD0009389022F911F9159
:100380000F9100F9009387020F931F932F93009111
:10039000890211B114FB11F913FB10F9137022ED4E
:1003A00016D0009389022F911F910F9100F90093AD
:1003B00088020F9108950F9336F40881002329F0E5
:1003C0000A950C94E40104E108830F9108951F93AA
:1003D0003F93133029F40217689403E00C9402024F
:1003E000E894302F3C7036953695131721F4069516
:1003F00006950C940202302F3370131719F0110F69
:0A040000110F010F3F911F910895A5
:00000001FF
